:03000000020C935C
:0C0C9300787FE4F6D8FD75811802080097
:0C0C9F00EF4E6007EF1F70F81E80F5227A
:080960008F118E108D0F8C0E1B
:10096800758902E4F58CAF11AE10AD0FAC0EEC4DED
:100978004E4F602FE4FFFED28C308DFDC28D0FBF2D
:1009880000010EEF64044E70EE74FF2511F511E5B9
:100998001034FFF510E50F34FFF50FE50E34FFF5C1
:0309A8000E80C3FB
:0109AB002229
:100C6B00120C0D7FD0120CBB7F07120CBBE4FF12D2
:050C7B000CBB020C4D52
:060CBB00120BC3020C80C5
:030CCB00020AB763
:100B79008F0E8D0F8B10120C0D7FD0120CBBE4FF62
:100B8900120CBBAF10120CBBAF0F120CBBAF0E1285
:050B99000CBB020C4D35
:100B9E008F0E8D0F8B10120C0D7FD0120CBB7F049D
:100BAE00120CBBAF0E120CBBAF0F120CBBAF101260
:050BBE000CBB020C4D10
:1008BE008B0E8A0F8910120C0D7FD0120CBBE4FF29
:1008CE00120CBB120C4D120C0D7FD1120CBB120C64
:1008DE00CBAB14AA15A916EF120B67120CAB120CA8
:1008EE00CBAB11AA12A913EF120B67120CAB120CA1
:1008FE00CBAB0EAA0FA910EF120B67120CB3020CA2
:01090E004D9B
:10090F008B0E8A0F8910120C0D7FD0120CBB7F0437
:10091F00120CBB120C4D120C0D7FD1120CBB120C12
:10092F00CBAB0EAA0FA910EF120B67120CAB120C68
:10093F00CBAB11AA12A913EF120B67120CAB120C4F
:10094F00CBAB14AA15A916EF120B67120CB3020C3E
:01095F004D4A
:100C80007F327E00120C9FD2917F327E00120C9F29
:030C9000C29122EC
:100C0D00C291D2907F327E00120C9FD2917F327EA4
:100C1D0000120C9FC2907F327E00120C9FC2912257
:100C4D00C2917F327E00120C9FC2907F327E0012C5
:0E0C5D000C9FD2917F327E00120C9FD290220B
:020BC3008F178A
:100BC500E4F518C3E5189408748094805012E5176D
:100BD500339290120C80E51725E0F517051880E390
:020BE500D290AC
:010BE70022EB
:100AB700E4F518D290F517C3E5179408748094806D
:100AC70050227F327E00120C9FD2917F327E00121D
:100AD7000C9FE51825E0F518A290E4334218C2915F
:060AE700051780D3AF18D3
:010AED0022E6
:080CAB00C290120C80D29022CD
:080CB300D290120C80D29122B4
:100C2D007F887E13120C9F7F02120A7C7F28120A86
:100C3D007C7F0C120A7C7F01120A7C7F80020A7C69
:100A7C008F0EE50E54F0F5B0C2B0C2B1D2B27F0108
:100A8C007E00120C9FC2B27F017E00120C9FE50EFD
:100A9C00C454F0F5B0C2B0C2B1D2B27F017E001224
:0B0AAC000C9FC2B27F017E00020C9F75
:050A3C00540F2430FFFF
:100A41008F11E51154F0F5B0D2B0C2B1D2B27F012D
:100A51007E00120C9FC2B27F017E00120C9FE51135
:100A6100C454F0F5B0D2B0C2B1D2B27F017E00124F
:0B0A71000C9FC2B27F017E00020C9FB0
:050CC1007FC0020A7C67
:100AEE00EFFB3395E0FAC3EB9402EA6480948050F6
:100AFE0020EFC4333354C04480FFEDFB3395E0FA4E
:100B0E00C3EB9410EA648094805003ED2FFF120A19
:010B1E007C5A
:010B1F0022B3
:100BE8008B0E8A0F8910AB0EAA0FA910120B4E603C
:100BF800130510E5107002050F14F9120B4EFF12C1
:050C08000A4180E22218
:1009AC008F0E8D0F8B107804E50EA2E713D8FB1277
:1009BC000A3CE50E120A3C7F3A120A417804E50F14
:1009CC00A2E713D8FB120A3CE50F120A3C7F3A123D
:1009DC000A417804E510A2E713D8FB120A3CE51093
:0809EC00540F2430FF020A4100
:1009F4008F0E8D0F8B107804E50EA2E713D8FB122F
:100A04000A3CE50E120A3C7F2F120A417804E50FD6
:100A1400A2E713D8FB120A3CE50F120A3C7F2F12FF
:100A24000A417804E510A2E713D8FB120A3CE5104A
:080A3400540F2430FF020A41B7
:050CC6007F01020A7C21
:100B2000204D4943524F44494749534F46542000B2
:100B30005245414C2D54494D452D434C4F434B009C
:0E0B40002054696D653A0020446174653A00E6
:10080000120C2D120C6B7B307D597F23120B797BE0
:10081000207D127F31120B9E7BFF7A0B7920120B09
:10082000E8120CC17BFF7A0B7930120BE87FE87E6F
:10083000037D007C00120960120CC67BFF7A0B79E5
:1008400040120BE8120CC17BFF7A0B7947120BE8C0
:100850007FE87E037D007C0012096075110075122F
:10086000007513097514007515007516087B007A5C
:1008700000790A1208BE7D06E4FF120AEEAB08AD4D
:1008800009AF0A1209AC75110075120075130C75C9
:10089000140075150075160D7B007A00790B12098E
:1008A0000F7D067F01120AEEAB0DAD0CAF0B1209E6
:0E08B000F47FE87E037D007C00120960809DCD
:100B4E00BB010689828A83E0225002E722BBFE02A5
:090B5E00E32289828A83E49322D8
:100B6700BB010689828A83F0225002F722BBFE016D
:020B7700F32267
:00000001FF
